:020000040800F2
:100000006018002001010008FB150008AB1400086F
:10001000F915000835030008C52C00080000000091
:10002000000000000000000000000000811900082E
:10003000DD030008000000007F1900088319000894
:100040001B0100081B0100081B0100081B01000820
:100050001B0100081B0100081B0100081B01000810
:100060001B0100081B0100081B0100081B01000800
:100070001B0100081B0100081B0100081B010008F0
:100080001B0100081B0100081B0100081B010008E0
:100090005D2C00081B0100081B0100081B01000863
:1000A0001B0100081B0100081B0100081B010008C0
:1000B000311A00081B0100081B0100081B01000881
:1000C0001B0100081B0100081B0100081B010008A0
:1000D0001B0100081B0100081B0100081B01000890
:1000E0001B0100081B0100081B010008DFF80CD0F1
:1000F00000F082F800480047F12C0008601800204A
:100100000648804706480047FEE7FEE7FEE7FEE7B1
:10011000FEE7FEE7FEE7FEE7FEE7FEE7E919000877
:10012000ED00000840EA01039B0703D009E008C97D
:10013000121F08C0042AFAD203E011F8013B00F8AC
:10014000013B521EF9D27047D2B201E000F8012BF8
:10015000491EFBD270470022F6E710B513460A4647
:1001600004461946FFF7F0FF204610BD70B506465D
:1001700002F0AAFD046805460A220021304600F07C
:1001800002F82C6070BD2DE9F04791460F4680467D
:100190000446002614F8015B2DB100F03FF800681A
:1001A000405DC007F6D12B2D02D02D2D18D0641E36
:1001B0004A463946204600F035F827B13968A14251
:1001C00001D1C7F8008071054FF002040BD5404201
:1001D000002803DD02F078FD0460A007BDE8F08789
:1001E00046F48066E4E70028F8DA02F06DFD04606A
:1001F0006FF00040F2E70000064C074D06E0E068B3
:1002000040F0010394E8070098471034AC42F6D35D
:10021000FFF770FFC82D0008E82D00080048704760
:10022000C42D00082DE9F05F8246007800271546AE
:100230008B460AF10104B946302801D09DB113E084
:1002400014F8010B0127782803D0582801D045B1B4
:100250000AE00DB1102D07D10027102514F8010B6D
:1002600002E0082500E00A250026B0460EE005FB66
:10027000080005FB06F1012701EB10461FFA80F884
:10028000B6F5803F00D3B94614F8010B294600F0BB
:1002900018F80028EBDABBF1000F05D00FB1641E8F
:1002A00000E05446CBF80040B9F1000F06D002F050
:1002B0000BFD02210160C81EBDE8F09F48EA064020
:1002C000FAE73A2800D2303820F02002412A01D340
:1002D000A2F13700884201D34FF0FF30704770B56C
:1002E0008C1810F8015B15F0070301D110F8013BE1
:1002F0002A1106D110F8012B03E010F8016B01F868
:10030000016B5B1EF9D12B0705D40023521E0DD4BF
:1003100001F8013BFAE710F8013BCB1A921C03E00D
:1003200013F8015B01F8015B521EF9D5A142D8D345
:10033000002070BDFEE700207047002070470000DD
:1003400010B500220449054801F0BAFC04490348ED
:1003500001F0B0FC002010BD74100020E801002066
:100360008C0C00202DE9F041194C0178174E2068C3
:100370003154401C20603046FFF7F8FE002548B19C
:10038000C0F196014FF08040C162456220680228AA
:1003900015D015E020680F4F304410F8010C72287A
:1003A00003D14021384600F0F9F82068304410F8B5
:1003B000010C732803D18021384600F0EFF8256046
:1003C000054801F05BFC0020BDE8F0810000002042
:1003D00068000020000C0140E801002070477047D1
:1003E0002DE9F84FDFF890A100220AF1040B144622
:1003F00001274FF00F090BF1040E00BF0B6807FA3D
:1004000004F52B40AB4274D1DFF870C14E68A6EB07
:100410000C0866452BD00DDC032E34D005DC36B33A
:10042000012E19D0022E2FD11BE0112E16D0122E24
:100430002AD119E0B8F5881F19D006DCB8F5803F3D
:1004400015D0B8F5801F1FD111E0B8F5001F0ED0F0
:10045000B8F5041F18D10AE0CA6815E0CA68121D71
:1004600012E0CA6808320FE0CA680C320CE08A68F1
:100470002AB1012A4FF0080203D0456104E00422AA
:1004800002E0056100E00022FF2B01D8064601E0F2
:1004900000F104064FEA840501D9A5F12005D6F83C
:1004A00000C009FA05F82CEA080C02FA05F54CEA36
:1004B000050CC6F800C04D68ED0057D5304DAE694B
:1004C00046F00106AE61AD6924F0030605F00105B2
:1004D00000952C4D06EB050CDCF80850A6074FEAFA
:1004E000167809FA08F6B543274EB04202D1002625
:1004F00010E03BE0254EB04201D101260AE0244E37
:10050000B04201D1022605E0224EB04201D10326BD
:1005100000E0042606FA08F62E43CCF808604D6881
:10052000DAF80060ED03554601D51E4300E09E4316
:100530002E604D68DBF80060AD035D4601D51E43BB
:1005400000E09E432E604D68DEF80060ED027546C7
:1005500001D51E4300E09E432E604D68AD020E4D56
:100560002E6801D51E4300E09E432E60641C102CB3
:10057000FFF444AFBDE8F88F000401400000111003
:10058000001002400000014000080140000C014042
:1005900000100140001401400C040140C2684A40B0
:1005A000C26070470AB1016170470904FBE70000AF
:1005B0000148806870470000800000200248816880
:1005C000027811448160704780000020074810B510
:1005D000016841F010010160032000F073F8002071
:1005E00000F006F800F024F8002010BD00200240C2
:1005F00070B50D4D04464FF47A712878B1FBF0F0D8
:100600000A490968B1FBF0F000F0A8FD48B9102CC8
:1006100007D200222146501E00F034F800206C6002
:1006200070BD012070BD0000800000207C00002013
:100630000C4808B5816941F001018161816901F0CF
:1006400001010091C16941F08051C161C06900F0B0
:10065000805000900448416821F0E06141F0007151
:10066000416008BD001002400000014000F01F0280
:10067000012191404009800000F1E020C0F8001104
:1006800070470000F0B40E4B1B680C46C3F3022306
:10069000C3F10705042D00D90425191D072901D22E
:1006A000002300E0DB1E012606FA05F1491E214069
:1006B00099409E40761E16403143F0BC00F09EBF2C
:1006C0000CED00E0064900F0070208684FF6FF0352
:1006D000184040EA0220034A1043086070470000B7
:1006E0000CED00E00000FA0510B50C0605D501F090
:1006F0007F0100EB4110283003E000EB411000F5D2
:100700000A7099B232B101228272C180190C018142
:10071000002010BD002282728180F9E7704700EB53
:100720004112D0F85C04D26B01F098BC00EB41128E
:10073000D0F85C04D2F83C2201F0E5BC10B50446C8
:100740000A460B0601F07F0004EB401101D5283169
:1007500001E001F50A710870D009487094F8280486
:10076000012809D0012084F82804206802F092F8BA
:10077000002084F8280410BD022010BD70B50A4680
:100780000446090602F07F0003D504EB401128312E
:1007900003E004EB421101F50A7100258D70087029
:1007A000D009487094F82804012809D0012084F861
:1007B0002804206802F01CF984F82854002070BD39
:1007C000022070BD01F00F0100EB4110B0F84402AF
:1007D00080B2704770B504460D460E0601F07F00EA
:1007E00004EB401101D5283101E001F50A710870D0
:1007F000E80948700A61CB7094F82804012809D0F0
:10080000012084F82804206801F014FF002084F8F7
:10081000280470BD022070BD70B50C4601F07F0544
:1008200000EB4511C1E98F230022C1F8442281F871
:10083000292281F8285201F50A716206006802F047
:1008400031F9002070BD70B50D460446090605F06B
:100850007F0003D504EB4011283103E004EB451180
:1008600001F50A7101228A700870E809487094F84D
:100870002804012807D084F82824206802F0EDF825
:10088000680602D006E0022070BD04F22C41206808
:1008900002F0ACF8002084F8280470BD70B50C4656
:1008A00001F07F0500EB4511C1E90F2300224A64E6
:1008B000012281F8292001F8285F6206006802F011
:1008C000F1F8002070BD10B50446006802F0CCF9C4
:1008D000000402D5204600F0A1FE206802F0C4F911
:1008E00040050CD5206830F8441F21F48061018058
:1008F000204600F0EDF80021204600F004F92068C1
:1009000002F0B2F9400405D5206830F8441F21F404
:1009100080410180206802F0A7F9800405D5206895
:1009200030F8441F21F400510180206802F09CF946
:10093000C00414D5206830F8401F21F00401018064
:10094000206830F8401F21F008010180204600F0A7
:10095000D2F8206830F8441F21F4805101802068CB
:1009600002F082F900051AD5206830F8401F41F0E6
:1009700008010180206830F8441F21F400610180E3
:10098000206830F8401F41F004010180206802F027
:100990006BF9C043C00402D5204600F0E9F8206896
:1009A00002F062F9800508D5206830F8441F21F470
:1009B00000710180204600F0A2F8206802F054F98E
:1009C000C00505D5206830F8441F21F480710180EE
:1009D00010BD00002DE9F04186B004004FF0000585
:1009E00004D094F82904002620B108E0012006B0C4
:1009F000BDE8F08184F82864204600F04BF803201D
:100A000084F82904206801F0EAFF04F1100114229F
:100A100088466846FFF786FB94E80F0001F038FF30
:100A20000021206802F033F95FF0010704EB451064
:100A300080F8297000F8285F8581C67006614661DC
:100A40006D1C86610F2DF1D35FF0000004EB4011A7
:100A500081F8296281F82802888681F82B62C1F822
:100A60003862C1F83C62401CC1F840620F28EDD3E7
:100A7000142241466846FFF755FB94E80F0001F049
:100A80009FFF84F8246084F82974206801F096FFA1
:100A90000020ACE708B500680B49884212D10B482A
:100AA000C16941F40001C161C069002200F4000085
:100AB000009011461420FFF7E5FDBDE80840142022
:100AC000FFF7D4BD08BD0000005C004000100240EC
:100AD00070B5044680680125022801D0FFF77FFC2D
:100AE0002946D4F85C0401F0DBFBD4F85C04BDE8D3
:100AF000704001F0A4BBD0F85C0401F0BFBBD0F89B
:100B00005C0401F0C1BB10B5044690F8280401282C
:100B10000BD0012084F8280484F82410206802F007
:100B2000B8F8002084F8280410BD022010BDD0F8C9
:100B30005C2400F22C41104601F0BEBB10B5044607
:100B400090F82804012810D0012084F828040146D8
:100B50002046FFF7E3FD206801F02EFF206802F039
:100B600076F8002084F8280410BD022010BD000093
:100B700010B50446D0F85C0401F0DDFBA069002844
:100B800004D00348016841F00601016010BD000077
:100B900010ED00E02DE9F84305460078354CC0071C
:100BA00054D0E0690026C00008D4E06940F08050CD
:100BB000E061E069012600F0805000902E48016855
:100BC000C90512D40168804641F480710160FFF7C5
:100BD000EFFC074605E000BFFFF7EAFCC01B6428F6
:100BE00023D8D8F80000C005F6D5206A10F440706C
:100BF00021D0A98801F4407181421CD0206A1F498C
:100C0000012220F440700A6000220A602062C007BE
:100C100011D0FFF7CDFC074641F2883808E000BF4D
:100C2000FFF7C6FCC11B414502D90320BDE8F8838C
:100C3000206A8007F4D5206A696820F44070084370
:100C400020621EB1E06920F08050E06128788007C2
:100C500005D56068A96820F44040084360602878A2
:100C6000C00605D56068E96820F48000084360602C
:100C70000020DBE7001002400070004040044242C8
:100C80002DE9F047DFF8548105460E46D8F80000FC
:100C900000F00700B0420CD2D8F8001021F0070194
:100CA0003143C8F80010D8F8000000F00700B04247
:100CB0006FD128684A4C810712D5400703D5606878
:100CC00040F4E06060602878000703D5606840F475
:100CD000605060606068A96820F0F00008436060C0
:100CE0002878C00744D06868012816D021680228F7
:100CF00016D0890700294CDA616821F0030101430D
:100D00006160FFF755FC6968074641F288300129A8
:100D10000ED00229814618D026E021688903E9E730
:100D20008901E7E7FFF744FCC11B494501D918E0F9
:100D300081466068C0F381000128F3D118E000BF4C
:100D4000FFF736FCC11B49450BD86068C0F3810032
:100D50000228F5D10CE000BFFFF72AFCC11B494572
:100D600002D90320BDE8F087606810F00C0FF3D1C2
:100D7000D8F80010404601F00701B1420BD90168D4
:100D800021F0070131430160006800F00700B04224
:100D900001D00120E6E72878400705D56068E968BA
:100DA00020F4E060084360602878000706D560689A
:100DB000296920F4605040EAC100606000F016F834
:100DC0006168084AC1F30311515CC84006490860D4
:100DD0000020FFF70DFC0020C4E7000000200240C7
:100DE00000100240302D00087C00002012A185B0C8
:100DF0000FC98DE80F0014A0144A006804905168D0
:100E0000134801F00C03042B10D0082B0ED1C1F3B2
:100E10008343C9031DF803000AD5516804AAC1F32E
:100E20004041515C0A4A5043B0FBF1F005B07047B5
:100E300008494843FAE700000203040506070809C9
:100E40000A0B0C0D0E0F10100102000000100240E2
:100E500000127A0000093D002DE9F84F04460078A1
:100E6000B94DC00748D06868C0F38100012807D099
:100E70006868C0F38100022809D16868C00306D5FC
:100E80002868800338D5606800286FD034E0606837
:100E9000B0F5803F0BD010B1B0F5A02F11D028686D
:100EA00020F480302860286820F4802002E0286840
:100EB00040F480302860606888B1FFF779FB06460F
:100EC00009E0286840F480202860F0E7FFF770FB15
:100ED000801B642875D828688003F7D50CE0FFF7DD
:100EE00067FB064605E000BFFFF762FB801B642836
:100EF000F0D828688003F7D42078944E80074FF00C
:100F000001094FF000083BD5686810F00C0F07D0BE
:100F10006868C0F38100022809D16868C00306D45C
:100F20002868800714D5206901281FD110E02069A6
:100F3000B0B1C6F80090FFF73BFB074605E000BFE5
:100F4000FFF736FBC01B0228C4D828688007F7D5F6
:100F50002868616920F0F80040EAC10028600FE0CD
:100F6000C6F80080FFF724FB074606E0E9E000BF73
:100F7000FFF71EFBC01B022823D828688007F7D480
:100F8000207800072CD57248A169D9B1C0F800902B
:100F9000FFF70EFB074604E0FFF70AFBC01B022821
:100FA0000FD8686A8007F7D56A484FF4FA5100688D
:100FB000B0FBF1F0009000BF0098411E0091FAD202
:100FC0000EE080E0C0F80080FFF7F2FA074604E088
:100FD000FFF7EEFAC01B022875D8686A8007F7D4BD
:100FE0002078400760D5E8690027C00008D4E86988
:100FF00040F08050E861E869012700F080500090DF
:1010000055480168C90513D40168834641F48071CD
:101010000160FFF7CDFA824606E000BFFFF7C8FA8D
:10102000A0EB0A0064284ED8DBF80000C005F5D517
:10103000E06801280AD008B1052813D0286A20F0FA
:1010400001002862286A20F0040002E0286A40F0CB
:1010500001002862E06841F2883B98B1FFF7A8FAE6
:1010600082460BE0286A40F004002862EEE700BFE9
:10107000FFF79EFAA0EB0A0159455AD8286A800763
:10108000F6D50CE0FFF794FA824605E0FFF790FAF8
:10109000A0EB0A0159454CD8286A8007F6D41FB145
:1010A000E86920F08050E861E06988B36968C1F3BD
:1010B0008101022945D00228C6F8608004D0FFF7DC
:1010C00077FA044638E034E0FFF772FA074604E0A6
:1010D000FFF76EFAC01B02282BD828688001F7D4CE
:1010E000206AB0F5803F05D16868A16820F400301F
:1010F00008436860D4E908010843696821F4741161
:1011000008436860C6F86090FFF752FA044606E0AC
:1011100015E000BFFFF74CFA001B022809D8286829
:101120008001F7D50BE000BFFFF742FA001B022851
:1011300002D90320BDE8F88F28688001F4D400208C
:10114000F8E70120F6E700000010024000004242EC
:10115000800442427C0000200070004010B5401E18
:10116000B0F1807F01D3012010BD4FF0E024606119
:101170000F21601700F042FA0020A06107202061D3
:10118000002010BD7047704730B590F83C20012A10
:1011900020D0012280F83C20022380F83D300368F3
:1011A0005C6824F070045C6003685C680D682C4324
:1011B0005C6003689C6824F080049C6003689C6801
:1011C00049680C439C6080F83D20002180F83C1069
:1011D000084630BD022030BD10B5040003D094F89D
:1011E0003D0010B107E0012010BD002084F83C0054
:1011F000204600F00DF8022084F83D00211D2068F3
:1012000000F024FC012084F83D00002010BD000007
:1012100008B50068B0F1804F12D10A48C16941F0A9
:101220000101C161C069002200F001000090114677
:101230001C20FFF727FABDE808401C20FFF716BA6C
:1012400008BD00000010024070B5044690F83C0054
:10125000012817D0012584F83C50022084F83D0075
:101260002068826822F0770222F47F428260086858
:10127000502837D00DDC202859D005DC88B3102841
:1012800041D151E0022070BD302853D040283AD1DE
:101290003FE060282ED070280BD0B0F5805F03D0DF
:1012A000B0F5005F2FD110E02068816821F00701C0
:1012B00015E0CB68D1E90121206800F0FDFB216831
:1012C000886840F0770088601DE0CB68D1E9012193
:1012D000206800F0F1FB2068816841F48041816062
:1012E00011E01EE0CA684968206800F0F7FB502151
:1012F000206806E0CA684968206800F000FC6021A8
:10130000206800F0E3FB84F83D50002084F83C00A6
:1013100070BDCA684968206800F0E0FB4021206881
:10132000EFE700212068ECE710212068E9E72021A1
:101330002068E6E730212068E3E7704770B504468F
:10134000006801694FF00005C943890715D4C168D9
:10135000C943890711D4E91E016101202077206863
:1013600080698007204602D0FFF7E7FF04E000F025
:1013700098F8204600F096F8257720680169C9435F
:10138000490717D4C168C943490713D46FF0040152
:101390000161022020772068806910F4407F204698
:1013A00002D0FFF7CAFF04E000F07BF8204600F00F
:1013B00079F8257720680169C943090716D4C168FF
:1013C000C943090712D46FF0080101610420207796
:1013D0002068C0698007204602D0FFF7AEFF04E016
:1013E00000F05FF8204600F05DF82577206801697D
:1013F000C943C90617D4C168C943C90613D46FF0DD
:1014000010010161082020772068C06910F4407F36
:10141000204602D0FFF791FF04E000F042F820469A
:1014200000F040F8257720680169C943C90708D151
:10143000C168C943C90704D1891E0161204600F073
:1014400032F820680169C943090609D4C168C94353
:10145000090605D46FF0800101612046FFF792FE76
:1014600020680169C943490609D4C168C9434906CE
:1014700005D46FF040010161204600F015F82068A6
:101480000169C94389060BD4C168C943890607D4D9
:101490006FF0200101612046BDE87040FFF773BE88
:1014A00070BD7047704770477047FEE7F0B5002386
:1014B0000A24302537261F4611E000BFB4EB107F09
:1014C00002D905EB107C01E006EB107C01F813C09B
:1014D00001EB430C00015B1C8CF80170DBB2934202
:1014E000ECD3F0BD30B585B00024184800940194C9
:1014F00002940394816941F020018161816901F0C6
:1015000020010491816941F004018161816901F048
:1015100004010491816941F00801816180690C4DE9
:1015200000F0080004900022E0212846FFF73AF876
:10153000E02000900120CDE90104022003906946DB
:101540002846FEF74DFF05B030BD000000100240F8
:10155000000C014010B586B000241148009401949D
:101560000294039404944FF080410594016040F28A
:10157000DF11C0E90114C821C0E903148461FFF739
:101580002BFE4FF48050009069460548FFF75CFE43
:10159000049404A902480594FFF7F6FD06B010BDB7
:1015A000A801002010B500220F49104800F02FFDBF
:1015B00008B1FEF714FF0E490C4800F0E2FE08B136
:1015C000FEF70DFF0B49094800F06CFB08B1FEF770
:1015D00006FF064800F022FF002803D0BDE81040B7
:1015E000FEF7FDBE10BD000018000020E80100203D
:1015F0006C0100206C000020FEE770470907090E0F
:10160000002806DA00F00F0000F1E02080F8141D39
:10161000704700F1E02080F8001470472DE9FC5F6E
:101620004FF000080446ADF80480ADF8008048F69D
:101630000F7B4FF002094FF4806692E1BDF8041071
:1016400011F00F072BD030F82710ADF80010BDF8BF
:101650000010090478D530F8272040F68F710A4031
:1016600020F8272004EB471595F8320205F50A7596
:101670000028206869D0297830F8212052047DD5CF
:10168000B0F8503009EBC101194406EB4101415A51
:10169000C1F309015FEA010A71D0EA88D0E0BDF820
:1016A0000410C9062AD4018801EA0B0101802068D0
:1016B00004F12805B0F850202B7809EBC301114440
:1016C00006EB4101405AC0F309006064E16B084435
:1016D000E06300212046FFF722F894F82400002858
:1016E000ABD0A8690028A8D194F82400216840F064
:1016F0008000A1F84C0084F8248032E1018804F5D0
:101700000A75ADF80010BDF8001009051ED5B0F837
:1017100050302978062202EBC101194406EB410141
:10172000405A04F22C41C0F30903EB61AA882068F7
:1017300001F09EFA2068018840F68F721140018006
:101740002046FFF7F4F90CE1A0E055E0BDF80010E9
:101750000904D2D5028840F68F710A4002802068C1
:10176000B0F850302978062202EBC101194406EB8B
:101770004101405A83059B0DEB6101E051E063E0BC
:1017800008D0AA886969206801F072FAE969686975
:101790000844686100212046FEF7C8FF2068B0F8C1
:1017A0005010891D06EB4101014428693E280CD9DF
:1017B000C0F34F12C00601D1521E92B24FF6FF7015
:1017C00000EA822040F4004009E0C0F34F02C00765
:1017D00001D0521C92B24FF6FF7000EA82200860DE
:1017E000216808884BF68F72104080F4405048F210
:1017F000800210430880B4E0B0F850202B78062116
:1018000001EBC301114406EB4101415AC1F3090147
:101810005FEA010A24D0AA885346696901F028FAD0
:101820001EE0B0F85020062303EBC101114406EB83
:101830004101415AC1F309015FEA010A04D02A8932
:101840005346696901F014FA2978206830F821308C
:1018500048F68F72134048F2C002134320F821303B
:10186000E96901EB0A00E861696901EB0A026A6152
:10187000AB6913B12869504504D929782046FEF791
:1018800055FF03E029782046FEF7C6FFBDF80000AB
:10189000000666D5206804EB471530F8271001EAEA
:1018A0000B0120F8271095F8320028350028206811
:1018B00012D0297830F82120B0F8503052061ED5C9
:1018C00009EBC101194406EB4101405A83059B0D08
:1018D000EB6124D0EA881EE0B0F850302A7809EB9A
:1018E000C201194406EB4101405A83059B0DEB618F
:1018F00021D0AA886969206801F0D1F91BE006228D
:1019000002EBC101194406EB4101405A83059B0DCE
:10191000EB6104D02A896969206801F0C0F929784F
:10192000206830F8212048F68F731A404CF280036B
:101930001A4320F821202068B0F850202B7809EBBA
:10194000C301114406EB4101405AC0F30900E861AC
:1019500069690A186A612978AB69204663B1FEF7A4
:101960009DFF2068B0F84410ADF8041009043FF55D
:1019700065AE0020BDE8FC9FFEF7D1FEF1E77047A1
:101980007047FEF71BBE30B593B028216846FEF7BE
:10199000E2FB14210AA8FEF7DEFB002401200F94CD
:1019A00010941194010412948DE8130004904FF4E4
:1019B000E010CDE90810022507956846FFF74CFABC
:1019C0000F20CDE90A056802CDE90C4002210AA8E2
:1019D0000E94FFF755F910200F9012940FA8FFF7FF
:1019E000D9F813B030BD00000D48016841F0010185
:1019F000016041680B4A1140416001680A4A114088
:101A00000160016821F480210160416821F4FE0138
:101A100041604FF41F0181600449C00308607047B2
:101A2000001002400000FFF8FFFFF6FE08ED00E0A6
:101A300010B520210348FEF7B1FDBDE81040024873
:101A4000FFF77CBC000C0140A8010020F0B5026843
:101A5000164B174C174D4FF08047984205D0B842AF
:101A600003D0A04201D0A84203D122F070064A68F8
:101A70003243984205D0B84203D0A04201D0A842D8
:101A800003D122F44074CA68224322F080044A69D8
:101A9000224302608A68C2620A688262984201D167
:101AA0000969016301214161F0BD0000002C014082
:101AB000000400400008004010B5846842EA032298
:101AC00024F47F440A432243826010BD826822F0DE
:101AD00070020A4342F007018160704710B5036A43
:101AE000046A24F001040462846924F0F00444EAE6
:101AF000021423F00A020A438461026210BD10B589
:101B0000036A23F0100303628369046A23F47043B9
:101B100043EA023224F0A00343EA01118261016228
:101B200010BDD0F8180220B10021C0F814120846E8
:101B300070470220704770B50546D0F8184200F093
:101B400017FBC4F80C02D5F8180248B1D5F81C12DE
:101B5000D4F80402CA6804F503719047002070BDF0
:101B6000022070BD70B504460025812100F06DFA99
:101B70000121204600F069FA8221204600F065FA32
:101B8000D4F8180250B1D4F81C0204F50674406869
:101B90008047206800F048FD00202060284670BD86
:101BA00010B5D0E9864159B194F80002FF2807D05A
:101BB0008B6894F8012221469847FF2084F80002A0
:101BC000002010BD0A2101800048704794000020C9
:101BD0004321018000487047E40000204321018038
:101BE00000487047A0000020432101800048704752
:101BF000280100202DE9F0410446007C00254FF427
:101C0000007670B3402302228121204600F002FBBF
:101C1000402302220121204600F0FCFA082303227F
:101C20008221204600F0F6FA4FF4077000F0FEFC27
:101C3000C4F81802F0B10746D4F81C0200688047C7
:101C40000020C7F81402C7F81802207CD7F8042235
:101C500090B140230121204600F0E8FA2846BDE873
:101C6000F081FFE7334602228121204600F0D2FABC
:101C70003346CEE70125F1E73346EBE710B5D0F860
:101C8000181269B1027C002AD1F8042205D0402341
:101C9000012100F0CBFA002010BD4FF40073F7E7EC
:101CA000022010BD02460220002902D00020C2F806
:101CB0001C127047D0F81802C0F8041200207047B8
:101CC000D0F81802C0F81022C0F80812002070479F
:101CD00070B50646D0F8185208780C4610F060012E
:101CE00021D0202927D1E288AAB10006607807D543
:101CF000D6F81C128B6829469847E288294617E0D7
:101D000085F80002A07985F80102E288294630466C
:101D100000F038F80FE0D6F81C12607800228B68CB
:101D20002146984707E060780A2804D10349012238
:101D3000304600F041F8002070BD00009000002007
:101D400010B5D0F8142252689047002010BD1346F9
:101D500010B50A46002100F069FA002010BD1346B4
:101D600010B50A46002100F0EFFA002010BD10B5B2
:101D70000446802100F0CDFA2046BDE81040002145
:101D800000F0C7BA10B50323C0F80821C0F8F43139
:101D9000C0F80C2113460A46002100F047FA002043
:101DA00010BD10B505210023C0F8F4111A461946DC
:101DB00000F03CFA002010BD10B502238261C0F88B
:101DC000F431C26113460A46002100F0BDFA00203A
:101DD00010BD10B504210023C0F8F4111A461946AD
:101DE00000F0B2FA002010BD10B50A46024903A067
:101DF00000F0DEF8004810BD8C0A00204344432068
:101E0000436F6E66696700001220088000487047C3
:101E10003800002010B50A46024903A000F0C8F8B7
:101E2000004810BD8C0A002043444320496E74656D
:101E300072666163650000000420088000487047F6
:101E40003400002010B50A46024903A000F0B0F8A3
:101E5000004810BD8C0A002053544D6963726F65B1
:101E60006C656374726F6E696373000010B50A4627
:101E7000024903A000F09CF8004810BD8C0A002025
:101E800053544D3332205669727475616C20436F20
:101E90006D506F727400000010B51A2008800A4857
:101EA0000168001D0468001D0068081809D0082298
:101EB0000649FFF7FBFA0549042210312046FFF7D7
:101EC000F5FA0248801E10BDE8F7FF1F4E00002003
:101ED000F8B5044648880D46010A08294BD2DFE8C8
:101EE00001F04A0409174A4A4048D4F81012207CED
:101EF0000A6832E0207C02260028D4F8140205D0BB
:101F0000C16A684688470146467041E0816AF8E741
:101F1000C0B206282FD2DFE800F003080D12171C0C
:101F2000D4F81012207C4A6817E0D4F81012207CF4
:101F30008A6812E0D4F81012207CCA680DE0D4F848
:101F40001012207C0A6908E0D4F81012207C4A693B
:101F500003E0D4F81012207C8A6969469047014654
:101F600016E0207C38B9D4F81402416B68468847E3
:101F7000F5E7207C20B129462046FFF7F8FEF8BDA2
:101F8000D4F81402016B6846884701460720487060
:101F9000BDF800000028F2D0EA88002AEFD0824283
:101FA00000D90246ADF800202046FFF705FFF8BD36
:101FB00070B5002300281DD00446002502E06D1CEA
:101FC000EDB2641C2678002EF9D1022404EB4504FE
:101FD0001480CC545B1C0322CA5400245B1C06E012
:101FE000CA545B1CDAB28C54521CD3B2401C027827
:101FF000002AF5D170BD01004FF0000004D0012986
:1020000001D0022901D0022070470120704710B58D
:1020100080B1D0F8143213B10023C0F8143209B1E2
:10202000C0F81012012180F8FC11027000F0A4F831
:10203000002010BD022010BD10B5D0F82002FEF720
:102040009DFBBDE81040FFF7D6BF10B5D0F82002C9
:10205000FEF774FBBDE81040FFF7CDBF2DE9F0415E
:102060001746044641B1D4F8140242698AB394F881
:10207000FC01032842D043E0D4F8F411002504F118
:102080001400022933D1D0E902639E4207D9F31A22
:1020900083609AB239462046FFF761FE12E040683D
:1020A000B0FBF3F103FB1101A1B9984212D3D4F8AC
:1020B000F81188420ED2002211462046FFF74FFE4B
:1020C000C4F8F85100231A461946204600F0AEF82D
:1020D0000DE012E0D4F81402C16829B194F8FC01B3
:1020E000032801D1204688472046FFF75AFE94F87E
:1020F0000002012804D184F8005201E020469047F4
:102100000020BDE8F08170B51546044641B1D4F811
:10211000140282693AB394F8FC01032824D025E024
:10212000D4F8F41104F5827003291FD1D0E90221FB
:102130008A420BD9531A83600846834200D3034670
:102140009AB229462046FFF702FE0FE0D4F81402A7
:10215000016929B194F8FC01032801D12046884780
:102160002046FFF736FE01E020469047002070BD74
:10217000D0F82002FEF726BB10B504461C481D49C6
:10218000C0F85C44C4F820020160082141600221CB
:10219000816000218161C1610162FEF71BFC08B111
:1021A000FEF71DF90022D4F820021823114604F589
:1021B0000874FEF799FA5823002280212068FEF760
:1021C00093FAC023002281212068FEF78DFA4FF494
:1021D0008873002201212068FEF786FA4FF480738D
:1021E000002282212068FEF77FFA002010BD000047
:1021F0002C060020005C00400A06D0F8200201F006
:102200007F0100EB411002D590F82A00704790F84A
:102210002A02704710B51C461346D0F82002224609
:10222000FEF7D8FABDE81040FFF7E5BE10B5D0F8CC
:102230002002FEF7F1FABDE81040FFF7DCBE70B5F2
:102240000022044640231146FFF7E4FF40252B46B9
:10225000002280212046C4F81051FFF7DBFF012047
:10226000256284F8FC01D4F8180228B1D4F81402CD
:102270002179426820469047002070BD90F8FD11FA
:1022800080F8FC110020704710B590F8FC1103296C
:1022900004D1D0F81412C96901B18847002010BDDB
:1022A00001740020704710B5D0F82002FEF72BFC17
:1022B000BDE81040FFF79FBE70B5044600F5027000
:1022C000054600F04AF80120C4F8F401B4F80E0203
:1022D000C4F8F80194F8080210F01F010AD001298F
:1022E0000DD0022910D000F08001204600F011F836
:1022F000002070BD2946204600F095F8F8E72946F1
:10230000204600F077F9F3E72946204600F004F96B
:10231000EEE710B5D0F82002FEF795FABDE81040C0
:10232000FFF769BE10B5D0F82002FEF707FCBDE844
:102330001040FFF760BE90F8FC1180F8FD110421F9
:1023400080F8FC110020704710B5D0F82002FEF78D
:10235000A5FABDE81040FFF74EBE0A7802704A7831
:1023600042708A78CB7802EB032242800A794B795B
:1023700002EB032282808A79C97902EB0121C180B4
:1023800070470246002011B1C2F8141270470220B3
:10239000704710B5D0F8142202241AB11268904781
:1023A00000B90024204610BD70B50E461A4D89783C
:1023B00004462970012928D894F8FC01022802D08B
:1023C000032822D105E099B10320616084F8FC0163
:1023D00009E091B1606888420AD0C1B22046FFF797
:1023E000AFFC297861602046FFF7D3FF02280CD0AC
:1023F0002046BDE87040FFF7ECBC022084F8FC01E9
:1024000020466160FFF79CFCF2E731462046BDE8BC
:102410007040FFF7ACBC00008C00002010B5FFF747
:1024200081FF002010BD2DE9F04100264B780125E9
:1024300032460A2B43D2DFE803F03C5842514208AF
:1024400005422A27FFF744FD63E004468888C8B99F
:10245000C888B8B9887800F07F0794F8FC01032891
:1024600010D084F8FE7139462046FFF71CFF204645
:10247000FFF7AFFC1FB1022084F8FC0149E084F8AB
:10248000FC5146E020461AE0FFF78EFF41E0CB8882
:10249000012B14D190F8FC31022B02D0032B0ED16A
:1024A00004E08260012200F1080114E00122011D14
:1024B00011E090F8FC21022A04D0032A02D0FFF791
:1024C00056FC26E0C560D0F8041209B10321C160B2
:1024D000022200F10C01FFF76FFC1AE00446488865
:1024E000012816D1C4F804520BE0044690F8FC0110
:1024F000022801D00328C5D14888012809D1C4F891
:102500000422D4F814028268204690472046FFF740
:1025100060FC3046BDE8F08170B50D460446287871
:1025200000260979C0F34110012806D06878A0B3CD
:1025300001281FD003283FD107E0D4F81402294610
:10254000826820469047002070BD94F8FC01022864
:1025500017D003282CD1688828B921B1802902D04E
:102560002046FFF7D6FED4F814022946826820469A
:10257000904713E094F8FC01022802D0032817D1F9
:1025800003E0C9B180291BD116E06888A0B94806CC
:1025900004D02046FFF750FDE5E703E02046FFF7B3
:1025A00018FC09E094F8FC01022807D003280BD09E
:1025B00029462046FFF7DBFB304670BD4806FBD0BE
:1025C0002046FFF7A6FEF7E7080601F07F0004EBC0
:1025D000001501D5143501E005F582752046FFF799
:1025E0000BFE00B101202860022229462046FFF799
:1025F000E3FBE1E770B5054690F8FC010C460328C3
:102600000DD1207901280AD8D5F81402826828460D
:102610009047E08830B92846FFF7DBFB02E0284608
:10262000FFF7A5FB002070BD704700000048704711
:102630000C0400202DE9F047CC780A7848F68F1377
:1026400034B1012C6DD0022C08D0032C13D10BE037
:1026500030F822401C4044F400730AE030F8224075
:102660001C4020F8224006E030F822401C4044F490
:10267000C06320F822300C7830F8245048F68F726E
:10268000154048F280031D43254320F824508D7ADD
:1026900048F6BF7904274BF68F7A48F2C0044CF213
:1026A0008006EDB30D7830F825C048F280180CEAAA
:1026B000020C4CEA080C20F825C0CD88B0F850C0B8
:1026C00025F0010591F800800CEBC80C00EB4C0CD8
:1026D000CCF800540D89B0F850C025F0010591F8F0
:1026E000008007EBC807674400EB4707C7F80054B2
:1026F0004D78002D0D7830F825704FEA47477DD092
:10270000002F05DA30F825701740374320F8257080
:102710000D7830F825707F0608D530F8257001E077
:1027200024E01DE01740274320F825700C7830F88E
:1027300024501540354320F824500C7830F82420DC
:1027400002EA09021A4320F824200A7830F82210FD
:1027500001EA0A01194320F822100020BDE8F087A1
:1027600030F822401C4044F4806382E74D78F5B194
:102770008D88B0F8506025F001050F7806EBC7068C
:1027800000EB4606C6F800540D7830F82560760652
:1027900005D530F825601640264320F825600A78D4
:1027A00030F8221001EA090181F02001D2E78C887B
:1027B000B0F8505024F0010491F800C007EBCC07AA
:1027C0003D4400EB4505C5F80044B0F850400D7895
:1027D000062707EBC5052C4400EB44070C694FF6B0
:1027E000FF7C07F580673E2C0CD9C4F34F15E40637
:1027F00001D16D1EADB20CEA852400E01EE044F468
:10280000004407E0C4F34F05E40701D06D1CADB2EE
:102810000CEA85243C600C7830F824506D0405D512
:1028200030F824501540354320F824500A7830F809
:10283000221001EA0A0181F440518BE7002F05DAEA
:1028400030F825701740374320F825700D7830F8A0
:102850002560760605D530F825601640264320F819
:1028600025600E7830F826501540254320F8265074
:102870000C7830F8242002EA0A0282F440521A430B
:1028800020F824200A7830F8221001EA090161E7D3
:10289000002070472DE9F04391F80A8091F801C0BB
:1028A0000A7848F6BF774BF68F7948F2800348F2F2
:1028B000C0054CF2800648F68F74B8F1000F2ED098
:1028C000BCF1000F30F822C04FEA4C4C4ED0BCF1A6
:1028D000000F07DA30F822C00CEA040C4CEA060CB0
:1028E00020F822C00A7830F822C05FEA4C6C07D585
:1028F00030F822C00CEA040C4CEA050C20F822C087
:102900000A7830F822502540354320F822500C78C0
:1029100030F824203A401A4320F824201BE0BCF170
:10292000000F0ED030F82260760605D530F8226010
:1029300026402E4320F822600A7830F822103940D1
:102940000EE030F822506D0405D530F822502540B5
:10295000354320F822500A7830F8221001EA0901A4
:10296000194320F822100020BDE8F083BCF1000FCD
:1029700007DA30F822C00CEA040C4CEA060C20F806
:1029800022C00A7830F82260760605D530F8226039
:1029900026402E4320F822600E7830F82620224070
:1029A0002A4320F826200C7830F8242002EA090275
:1029B0001A4320F82420BFE700207047002070470A
:1029C00000B50121A0F840100021A0F84010A0F8A7
:1029D0004410A0F8501000F03AF9002000BD30F883
:1029E000401F21F43D4101800020704700207047C6
:1029F00030B54D780A78002D48F68F7430F82250A3
:102A000048F2800312D06D0607D530F822502540D9
:102A100048F2C004254320F822500A7830F82210EA
:102A200048F6BF74214081F0300111E06D0407D5F4
:102A300030F8225025404CF28004254320F82250E3
:102A40000A7830F822104BF68F74214081F44051FF
:102A5000194320F82210002030BD10B50A7848F242
:102A6000800352B14978002930F8221010D048F67E
:102A7000BF74214081F010010FE001884BF6BF7256
:102A8000114081F4805181F010011943018007E069
:102A90004BF68F74214081F48051194320F82210A5
:102AA000002010BD2DE9F0410D460646896995F8D4
:102AB00001C00023AA7A022728690C4648F2800840
:102AC000BCF1010F05D0814252D90446081AA86111
:102AD0004FE0814203D90446081AA86100E0AB61C7
:102AE0007AB1287836F820104906B6F8501007EB6E
:102AF000C000084406EB4000C0F8004412D52A8903
:102B000011E0A3B2AA883046696900F0C8F8B6F8A7
:102B10005000297807EBC101084406EB4000C0F8DB
:102B200000441CE0EA88A3B23046696900F0B7F8B7
:102B3000687848F68F7110B1012807D00FE0287827
:102B400036F820200A4048F2C00105E0287836F81F
:102B500020200A404CF280010A4326F820202978E0
:102B600036F8210048F6BF72104080F0300067E070
:102B7000AB6106234FF6FF701AB1BCF1000F1BD0FA
:102B800056E0B6F850102A783E2C03EBC2021144EE
:102B900006EB410202F5806239D9C4F34F11E30616
:102BA00032D000BF00EA812040F4004002E000BFC4
:102BB00000EA812010603BE0B6F850102A783E2CE5
:102BC00007EBC202114406EB410202F580620BD909
:102BD000C4F34F115FEAC46C01D1491E89B200EA07
:102BE000812141F4004108E0C4F34F015FEAC47C55
:102BF00001D0491C89B200EA81211160697800295D
:102C0000BFD001290AD013E0491E89B2CAE7C4F334
:102C10004F01E307CCD0491C89B2C9E7B6F8500090
:102C2000297807EBC101084406EB4000C0F80044D6
:102C3000297836F821004BF68F72104080F440500E
:102C400040EA080026F821000020BDE8F08130F8B5
:102C5000401F41F43F410180002070470148FDF7CB
:102C600032BE00002C060020B0F84400704700007F
:102C70005B1C00EB42005B0800F5806006D000BFE3
:102C800030F8042B21F8022B5B1EF9D1704700208D
:102C9000704711B98021A0F84C100020704710B582
:102CA0005B1C00EB42005B0800F5806009D011F866
:102CB000012B5B1E11F8014B42EA042220F8042B81
:102CC000F5D110BDFEE7000000487047A4010020C8
:102CD00002E008C8121F08C1002AFAD170477047E5
:102CE000002001E001C1121F002AFBD17047000043
:102CF000FDF76CFCFEF747FEFEF7F4FBFEF72AFC3F
:102D0000FEF750FC094880210160402101608006E7
:102D1000016841F001010160016A41F480710162C2
:102D2000C16841F00101C160FEE70000100C0140E4
:102D3000000000000000000001020304060708096B
:102D400000404040404040404040414141414140BE
:102D50004040404040404040404040404040404073
:102D60004005020202020202020202020202020202
:102D70000220202020202020202020020202020207
:102D8000020290909090909010101010101010105F
:102D9000101010101010101010101010020202026B
:102DA00002028888888888880808080808080808AF
:102DB00008080808080808080808080802020202AB
:102DC00040000000412D0008E82D00080000002010
:102DD000A8010000DE020008BC2E0008A8010020A7
:102DE000B8160000E02C0008A00F48656C6C6F203E
:102DF000576F726C6421212113091E1B0839041AB4
:102E000045041A6D041A990413E91D1B08150817C7
:102E100004030904120114020202164083044057FD
:102E2000260201020301031E1A031341031B083B80
:102E3000041A37041A6504111CA24A043711F2104F
:102E4000130A0632022A401C1C0902435F1125C0E6
:102E50003209041B01020B1305241610010524017D
:102E60001009010424020205240617010705820344
:102E7000081B10094E33020A1D07050102432C07E7
:102E80000581070938442A40072A8107112B0907C1
:102E9000440A2204440A16FF441BF51BF819041BBC
:102EA000D11CFC311AA10C1A23041A3704C12ADDE3
:0C2EB0002419041AE9045AC51C00000093
:04000005080000ED02
:00000001FF
